{
  "_format": "hh-sol-artifact-1",
  "contractName": "FundraisingFactory",
  "sourceName": "contracts/Fundraising/Factory.sol",
  "abi": [
    {
      "inputs": [
        {
          "internalType": "uint256",
          "name": "_fee",
          "type": "uint256"
        },
        {
          "internalType": "address",
          "name": "_feeWallet",
          "type": "address"
        },
        {
          "internalType": "address",
          "name": "_token",
          "type": "address"
        }
      ],
      "stateMutability": "nonpayable",
      "type": "constructor"
    },
    {
      "anonymous": false,
      "inputs": [
        {
          "indexed": false,
          "internalType": "address",
          "name": "fundraiser",
          "type": "address"
        }
      ],
      "name": "LogCreatedFundraiser",
      "type": "event"
    },
    {
      "anonymous": false,
      "inputs": [
        {
          "indexed": false,
          "internalType": "uint256",
          "name": "fee",
          "type": "uint256"
        }
      ],
      "name": "LogSetFee",
      "type": "event"
    },
    {
      "anonymous": false,
      "inputs": [
        {
          "indexed": false,
          "internalType": "address",
          "name": "feeWallet",
          "type": "address"
        }
      ],
      "name": "LogSetFeeWallet",
      "type": "event"
    },
    {
      "anonymous": false,
      "inputs": [
        {
          "indexed": false,
          "internalType": "address",
          "name": "token",
          "type": "address"
        }
      ],
      "name": "LogSetToken",
      "type": "event"
    },
    {
      "inputs": [
        {
          "internalType": "bytes32",
          "name": "_name",
          "type": "bytes32"
        },
        {
          "internalType": "bytes32",
          "name": "_roundId",
          "type": "bytes32"
        },
        {
          "internalType": "uint256",
          "name": "_minAmount",
          "type": "uint256"
        },
        {
          "internalType": "uint256",
          "name": "_maxAmount",
          "type": "uint256"
        },
        {
          "internalType": "uint256",
          "name": "_capacity",
          "type": "uint256"
        },
        {
          "internalType": "uint256",
          "name": "_referrerFee",
          "type": "uint256"
        },
        {
          "internalType": "address",
          "name": "_receiverWallet",
          "type": "address"
        }
      ],
      "name": "createFundraiser",
      "outputs": [
        {
          "internalType": "address",
          "name": "",
          "type": "address"
        }
      ],
      "stateMutability": "nonpayable",
      "type": "function"
    },
    {
      "inputs": [],
      "name": "fee",
      "outputs": [
        {
          "internalType": "uint256",
          "name": "",
          "type": "uint256"
        }
      ],
      "stateMutability": "view",
      "type": "function"
    },
    {
      "inputs": [],
      "name": "feeWallet",
      "outputs": [
        {
          "internalType": "address",
          "name": "",
          "type": "address"
        }
      ],
      "stateMutability": "view",
      "type": "function"
    },
    {
      "inputs": [],
      "name": "getFundraisers",
      "outputs": [
        {
          "components": [
            {
              "internalType": "address",
              "name": "fundraiser",
              "type": "address"
            },
            {
              "internalType": "address[]",
              "name": "fundraising",
              "type": "address[]"
            }
          ],
          "internalType": "struct FundraisingFactory.fundraiserStruct[]",
          "name": "",
          "type": "tuple[]"
        }
      ],
      "stateMutability": "view",
      "type": "function"
    },
    {
      "inputs": [],
      "name": "owner",
      "outputs": [
        {
          "internalType": "address",
          "name": "",
          "type": "address"
        }
      ],
      "stateMutability": "view",
      "type": "function"
    },
    {
      "inputs": [
        {
          "internalType": "uint256",
          "name": "_fee",
          "type": "uint256"
        }
      ],
      "name": "setFee",
      "outputs": [],
      "stateMutability": "nonpayable",
      "type": "function"
    },
    {
      "inputs": [
        {
          "internalType": "address",
          "name": "_feeWallet",
          "type": "address"
        }
      ],
      "name": "setFeeWallet",
      "outputs": [],
      "stateMutability": "nonpayable",
      "type": "function"
    },
    {
      "inputs": [
        {
          "internalType": "address",
          "name": "_token",
          "type": "address"
        }
      ],
      "name": "setToken",
      "outputs": [],
      "stateMutability": "nonpayable",
      "type": "function"
    },
    {
      "inputs": [],
      "name": "token",
      "outputs": [
        {
          "internalType": "address",
          "name": "",
          "type": "address"
        }
      ],
      "stateMutability": "view",
      "type": "function"
    }
  ],
  "bytecode": "0x60806040523480156200001157600080fd5b5060405162004ac038038062004ac08339818101604052810190620000379190620002de565b6127106003541062000080576040517f08c379a000000000000000000000000000000000000000000000000000000000815260040162000077906200039b565b60405180910390fd5b600073ffffffffffffffffffffffffffffffffffffffff168273ffffffffffffffffffffffffffffffffffffffff161415620000f3576040517f08c379a0000000000000000000000000000000000000000000000000000000008152600401620000ea906200040d565b60405180910390fd5b600073ffffffffffffffffffffffffffffffffffffffff168173ffffffffffffffffffffffffffffffffffffffff16141562000166576040517f08c379a00000000000000000000000000000000000000000000000000000000081526004016200015d906200047f565b60405180910390fd5b8260038190555081600460006101000a81548173ffffffffffffffffffffffffffffffffffffffff021916908373ffffffffffffffffffffffffffffffffffffffff16021790555080600560006101000a81548173ffffffffffffffffffffffffffffffffffffffff021916908373ffffffffffffffffffffffffffffffffffffffff16021790555033600660006101000a81548173ffffffffffffffffffffffffffffffffffffffff021916908373ffffffffffffffffffffffffffffffffffffffff160217905550505050620004a1565b600080fd5b6000819050919050565b62000253816200023e565b81146200025f57600080fd5b50565b600081519050620002738162000248565b92915050565b600073ffffffffffffffffffffffffffffffffffffffff82169050919050565b6000620002a68262000279565b9050919050565b620002b88162000299565b8114620002c457600080fd5b50565b600081519050620002d881620002ad565b92915050565b600080600060608486031215620002fa57620002f962000239565b5b60006200030a8682870162000262565b93505060206200031d86828701620002c7565b92505060406200033086828701620002c7565b9150509250925092565b600082825260208201905092915050565b7f4665652073686f756c64206265206c657373207468616e203130302500000000600082015250565b600062000383601c836200033a565b915062000390826200034b565b602082019050919050565b60006020820190508181036000830152620003b68162000374565b9050919050565b7f5573657228666565576c6c65742920646f65736e277420657869737473000000600082015250565b6000620003f5601d836200033a565b91506200040282620003bd565b602082019050919050565b600060208201905081810360008301526200042881620003e6565b9050919050565b7f546f6b656e20646f65736e277420657869737473000000000000000000000000600082015250565b6000620004676014836200033a565b915062000474826200042f565b602082019050919050565b600060208201905081810360008301526200049a8162000458565b9050919050565b61460f80620004b16000396000f3fe60806040523480156200001157600080fd5b5060043610620000a05760003560e01c80638e028d40116200006f5780638e028d40146200013d57806390d49b9d146200015f578063ddca3f43146200017f578063f25f4b5614620001a1578063fc0c546a14620001c357620000a0565b8063144fa6d714620000a55780632db1c6ff14620000c557806369fe0e2d14620000fb5780638da5cb5b146200011b575b600080fd5b620000c36004803603810190620000bd919062000e0e565b620001e5565b005b620000e36004803603810190620000dd919062000eb6565b6200038a565b604051620000f2919062000f7a565b60405180910390f35b62000119600480360381019062000113919062000f97565b62000803565b005b6200012562000924565b60405162000134919062000f7a565b60405180910390f35b620001476200094a565b604051620001569190620011a8565b60405180910390f35b6200017d600480360381019062000177919062000e0e565b62000b6f565b005b6200018962000d14565b604051620001989190620011dd565b60405180910390f35b620001ab62000d1a565b604051620001ba919062000f7a565b60405180910390f35b620001cd62000d40565b604051620001dc919062000f7a565b60405180910390f35b600660009054906101000a900473ffffffffffffffffffffffffffffffffffffffff1673ffffffffffffffffffffffffffffffffffffffff163373ffffffffffffffffffffffffffffffffffffffff161462000278576040517f08c379a00000000000000000000000000000000000000000000000000000000081526004016200026f906200125b565b60405180910390fd5b600073ffffffffffffffffffffffffffffffffffffffff168173ffffffffffffffffffffffffffffffffffffffff161415620002eb576040517f08c379a0000000000000000000000000000000000000000000000000000000008152600401620002e290620012cd565b60405180910390fd5b80600560006101000a81548173ffffffffffffffffffffffffffffffffffffffff021916908373ffffffffffffffffffffffffffffffffffffffff1602179055507f5b5f639eae4eb0789b53a218b67fe7238987c2ae8e6669f57eb56b267d025d7e600560009054906101000a900473ffffffffffffffffffffffffffffffffffffffff166040516200037f919062000f7a565b60405180910390a150565b6000600660009054906101000a900473ffffffffffffffffffffffffffffffffffffffff1673ffffffffffffffffffffffffffffffffffffffff163373ffffffffffffffffffffffffffffffffffffffff16146200041f576040517f08c379a000000000000000000000000000000000000000000000000000000000815260040162000416906200125b565b60405180910390fd5b600088141562000466576040517f08c379a00000000000000000000000000000000000000000000000000000000081526004016200045d906200133f565b60405180910390fd5b6000871415620004ad576040517f08c379a0000000000000000000000000000000000000000000000000000000008152600401620004a490620013b1565b60405180910390fd5b848610620004f2576040517f08c379a0000000000000000000000000000000000000000000000000000000008152600401620004e99062001449565b60405180910390fd5b6000841162000538576040517f08c379a00000000000000000000000000000000000000000000000000000000081526004016200052f90620014e1565b60405180910390fd5b600073ffffffffffffffffffffffffffffffffffffffff168273ffffffffffffffffffffffffffffffffffffffff16141562000572573391505b600088888888886003548989600460009054906101000a900473ffffffffffffffffffffffffffffffffffffffff16600560009054906101000a900473ffffffffffffffffffffffffffffffffffffffff1633604051620005d39062000d66565b620005e99b9a9998979695949392919062001514565b604051809103906000f08015801562000606573d6000803e3d6000fd5b509050600160003373ffffffffffffffffffffffffffffffffffffffff1673ffffffffffffffffffffffffffffffffffffffff16815260200190815260200160002060009054906101000a900460ff1662000716576002339080600181540180825580915050600190039060005260206000200160009091909190916101000a81548173ffffffffffffffffffffffffffffffffffffffff021916908373ffffffffffffffffffffffffffffffffffffffff16021790555060018060003373ffffffffffffffffffffffffffffffffffffffff1673ffffffffffffffffffffffffffffffffffffffff16815260200190815260200160002060006101000a81548160ff0219169083151502179055505b60008190506000803373ffffffffffffffffffffffffffffffffffffffff1673ffffffffffffffffffffffffffffffffffffffff168152602001908152602001600020819080600181540180825580915050600190039060005260206000200160009091909190916101000a81548173ffffffffffffffffffffffffffffffffffffffff021916908373ffffffffffffffffffffffffffffffffffffffff1602179055507f57acde97772a79cb50e86572c1ffca898d96abd010dca728656f8d8e145b352981604051620007eb919062000f7a565b60405180910390a18092505050979650505050505050565b600660009054906101000a900473ffffffffffffffffffffffffffffffffffffffff1673ffffffffffffffffffffffffffffffffffffffff163373ffffffffffffffffffffffffffffffffffffffff161462000896576040517f08c379a00000000000000000000000000000000000000000000000000000000081526004016200088d906200125b565b60405180910390fd5b61271060035410620008df576040517f08c379a0000000000000000000000000000000000000000000000000000000008152600401620008d69062001625565b60405180910390fd5b806003819055507fb7b93f9e109f0cf510fa76f3f87211d618dd9e0e71e9a4a25399e5b4fca38dc8600354604051620009199190620011dd565b60405180910390a150565b600660009054906101000a900473ffffffffffffffffffffffffffffffffffffffff1681565b6060600060028054905067ffffffffffffffff81111562000970576200096f62001647565b5b604051908082528060200260200182016040528015620009ad57816020015b6200099962000d74565b8152602001906001900390816200098f5790505b50905060005b60028054905081101562000b6757604051806040016040528060028381548110620009e357620009e262001676565b5b9060005260206000200160009054906101000a900473ffffffffffffffffffffffffffffffffffffffff1673ffffffffffffffffffffffffffffffffffffffff1681526020016000806002858154811062000a435762000a4262001676565b5b9060005260206000200160009054906101000a900473ffffffffffffffffffffffffffffffffffffffff1673ffffffffffffffffffffffffffffffffffffffff1673ffffffffffffffffffffffffffffffffffffffff16815260200190815260200160002080548060200260200160405190810160405280929190818152602001828054801562000b2a57602002820191906000526020600020905b8160009054906101000a900473ffffffffffffffffffffffffffffffffffffffff1673ffffffffffffffffffffffffffffffffffffffff168152602001906001019080831162000adf575b505050505081525082828151811062000b485762000b4762001676565b5b60200260200101819052508062000b5f90620016d4565b9050620009b3565b508091505090565b600660009054906101000a900473ffffffffffffffffffffffffffffffffffffffff1673ffffffffffffffffffffffffffffffffffffffff163373ffffffffffffffffffffffffffffffffffffffff161462000c02576040517f08c379a000000000000000000000000000000000000000000000000000000000815260040162000bf9906200125b565b60405180910390fd5b600073ffffffffffffffffffffffffffffffffffffffff168173ffffffffffffffffffffffffffffffffffffffff16141562000c75576040517f08c379a000000000000000000000000000000000000000000000000000000000815260040162000c6c9062001772565b60405180910390fd5b80600460006101000a81548173ffffffffffffffffffffffffffffffffffffffff021916908373ffffffffffffffffffffffffffffffffffffffff1602179055507f18e4c8a156904451283849b755d8d9b1fb3c3fa27398c041dc16ef6e816c27c4600460009054906101000a900473ffffffffffffffffffffffffffffffffffffffff1660405162000d09919062000f7a565b60405180910390a150565b60035481565b600460009054906101000a900473ffffffffffffffffffffffffffffffffffffffff1681565b600560009054906101000a900473ffffffffffffffffffffffffffffffffffffffff1681565b612e45806200179583390190565b6040518060400160405280600073ffffffffffffffffffffffffffffffffffffffff168152602001606081525090565b600080fd5b600073ffffffffffffffffffffffffffffffffffffffff82169050919050565b600062000dd68262000da9565b9050919050565b62000de88162000dc9565b811462000df457600080fd5b50565b60008135905062000e088162000ddd565b92915050565b60006020828403121562000e275762000e2662000da4565b5b600062000e378482850162000df7565b91505092915050565b6000819050919050565b62000e558162000e40565b811462000e6157600080fd5b50565b60008135905062000e758162000e4a565b92915050565b6000819050919050565b62000e908162000e7b565b811462000e9c57600080fd5b50565b60008135905062000eb08162000e85565b92915050565b600080600080600080600060e0888a03121562000ed85762000ed762000da4565b5b600062000ee88a828b0162000e64565b975050602062000efb8a828b0162000e64565b965050604062000f0e8a828b0162000e9f565b955050606062000f218a828b0162000e9f565b945050608062000f348a828b0162000e9f565b93505060a062000f478a828b0162000e9f565b92505060c062000f5a8a828b0162000df7565b91505092959891949750929550565b62000f748162000dc9565b82525050565b600060208201905062000f91600083018462000f69565b92915050565b60006020828403121562000fb05762000faf62000da4565b5b600062000fc08482850162000e9f565b91505092915050565b600081519050919050565b600082825260208201905092915050565b6000819050602082019050919050565b620010008162000dc9565b82525050565b600081519050919050565b600082825260208201905092915050565b6000819050602082019050919050565b600062001040838362000ff5565b60208301905092915050565b6000602082019050919050565b6000620010668262001006565b62001072818562001011565b93506200107f8362001022565b8060005b83811015620010b65781516200109a888262001032565b9750620010a7836200104c565b92505060018101905062001083565b5085935050505092915050565b6000604083016000830151620010dd600086018262000ff5565b5060208301518482036020860152620010f7828262001059565b9150508091505092915050565b6000620011128383620010c3565b905092915050565b6000602082019050919050565b6000620011348262000fc9565b62001140818562000fd4565b935083602082028501620011548562000fe5565b8060005b8581101562001196578484038952815162001174858262001104565b945062001181836200111a565b925060208a0199505060018101905062001158565b50829750879550505050505092915050565b60006020820190508181036000830152620011c4818462001127565b905092915050565b620011d78162000e7b565b82525050565b6000602082019050620011f46000830184620011cc565b92915050565b600082825260208201905092915050565b7f596f7520617265206e6f7420746865206f776e65720000000000000000000000600082015250565b600062001243601583620011fa565b915062001250826200120b565b602082019050919050565b60006020820190508181036000830152620012768162001234565b9050919050565b7f546f6b656e20646f65736e277420657869737473000000000000000000000000600082015250565b6000620012b5601483620011fa565b9150620012c2826200127d565b602082019050919050565b60006020820190508181036000830152620012e881620012a6565b9050919050565b7f4e616d652063616e206e6f7420626520656d7074790000000000000000000000600082015250565b600062001327601583620011fa565b91506200133482620012ef565b602082019050919050565b600060208201905081810360008301526200135a8162001318565b9050919050565b7f526f756e642049442063616e206e6f7420626520656d70747900000000000000600082015250565b600062001399601983620011fa565b9150620013a68262001361565b602082019050919050565b60006020820190508181036000830152620013cc816200138a565b9050919050565b7f4d696e696d616c20616d6f756e742063616e277420626520677265617465722060008201527f7468616e206d6178696d616c0000000000000000000000000000000000000000602082015250565b600062001431602c83620011fa565b91506200143e82620013d3565b604082019050919050565b60006020820190508181036000830152620014648162001422565b9050919050565b7f436170616369747920616d6f756e742073686f756c64206265206120706f736960008201527f74697665206e756d626572000000000000000000000000000000000000000000602082015250565b6000620014c9602b83620011fa565b9150620014d6826200146b565b604082019050919050565b60006020820190508181036000830152620014fc81620014ba565b9050919050565b6200150e8162000e40565b82525050565b6000610160820190506200152c600083018e62001503565b6200153b602083018d62001503565b6200154a604083018c620011cc565b62001559606083018b620011cc565b62001568608083018a620011cc565b6200157760a0830189620011cc565b6200158660c0830188620011cc565b6200159560e083018762000f69565b620015a561010083018662000f69565b620015b561012083018562000f69565b620015c561014083018462000f69565b9c9b505050505050505050505050565b7f4665652073686f756c64206265206c657373207468616e203130302500000000600082015250565b60006200160d601c83620011fa565b91506200161a82620015d5565b602082019050919050565b600060208201905081810360008301526200164081620015fe565b9050919050565b7f4e487b7100000000000000000000000000000000000000000000000000000000600052604160045260246000fd5b7f4e487b7100000000000000000000000000000000000000000000000000000000600052603260045260246000fd5b7f4e487b7100000000000000000000000000000000000000000000000000000000600052601160045260246000fd5b6000620016e18262000e7b565b91507fffffffffffffffffffffffffffffffffffffffffffffffffffffffffffffffff821415620017175762001716620016a5565b5b600182019050919050565b7f5573657220646f65736e27742065786973747300000000000000000000000000600082015250565b60006200175a601383620011fa565b9150620017678262001722565b602082019050919050565b600060208201905081810360008301526200178d816200174b565b905091905056fe60806040526000600a60146101000a81548160ff0219169083151502179055503480156200002c57600080fd5b5060405162002e4538038062002e45833981810160405281019062000052919062000578565b60008b141562000099576040517f08c379a00000000000000000000000000000000000000000000000000000000081526004016200009090620006e6565b60405180910390fd5b60008a1415620000e0576040517f08c379a0000000000000000000000000000000000000000000000000000000008152600401620000d79062000758565b60405180910390fd5b87891062000125576040517f08c379a00000000000000000000000000000000000000000000000000000000081526004016200011c90620007f0565b60405180910390fd5b600087116200016b576040517f08c379a0000000000000000000000000000000000000000000000000000000008152600401620001629062000888565b60405180910390fd5b6127108610620001b2576040517f08c379a0000000000000000000000000000000000000000000000000000000008152600401620001a990620008fa565b60405180910390fd5b6127108510620001f9576040517f08c379a0000000000000000000000000000000000000000000000000000000008152600401620001f090620008fa565b60405180910390fd5b600073ffffffffffffffffffffffffffffffffffffffff168473ffffffffffffffffffffffffffffffffffffffff1614156200026c576040517f08c379a0000000000000000000000000000000000000000000000000000000008152600401620002639062000992565b60405180910390fd5b600073ffffffffffffffffffffffffffffffffffffffff168373ffffffffffffffffffffffffffffffffffffffff161415620002df576040517f08c379a0000000000000000000000000000000000000000000000000000000008152600401620002d69062000a04565b60405180910390fd5b600073ffffffffffffffffffffffffffffffffffffffff168273ffffffffffffffffffffffffffffffffffffffff16141562000352576040517f08c379a0000000000000000000000000000000000000000000000000000000008152600401620003499062000a76565b60405180910390fd5b8a60008190555089600181905550886002819055508760038190555086600481905550856005819055508460068190555083600760006101000a81548173ffffffffffffffffffffffffffffffffffffffff021916908373ffffffffffffffffffffffffffffffffffffffff16021790555082600860006101000a81548173ffffffffffffffffffffffffffffffffffffffff021916908373ffffffffffffffffffffffffffffffffffffffff16021790555081600960006101000a81548173ffffffffffffffffffffffffffffffffffffffff021916908373ffffffffffffffffffffffffffffffffffffffff16021790555080600a60006101000a81548173ffffffffffffffffffffffffffffffffffffffff021916908373ffffffffffffffffffffffffffffffffffffffff160217905550505050505050505050505062000a98565b600080fd5b6000819050919050565b620004b2816200049d565b8114620004be57600080fd5b50565b600081519050620004d281620004a7565b92915050565b6000819050919050565b620004ed81620004d8565b8114620004f957600080fd5b50565b6000815190506200050d81620004e2565b92915050565b600073ffffffffffffffffffffffffffffffffffffffff82169050919050565b6000620005408262000513565b9050919050565b620005528162000533565b81146200055e57600080fd5b50565b600081519050620005728162000547565b92915050565b60008060008060008060008060008060006101608c8e031215620005a157620005a062000498565b5b6000620005b18e828f01620004c1565b9b50506020620005c48e828f01620004c1565b9a50506040620005d78e828f01620004fc565b9950506060620005ea8e828f01620004fc565b9850506080620005fd8e828f01620004fc565b97505060a0620006108e828f01620004fc565b96505060c0620006238e828f01620004fc565b95505060e0620006368e828f0162000561565b9450506101006200064a8e828f0162000561565b9350506101206200065e8e828f0162000561565b925050610140620006728e828f0162000561565b9150509295989b509295989b9093969950565b600082825260208201905092915050565b7f4e616d652063616e206e6f7420626520656d7074790000000000000000000000600082015250565b6000620006ce60158362000685565b9150620006db8262000696565b602082019050919050565b600060208201905081810360008301526200070181620006bf565b9050919050565b7f526f756e642049442063616e206e6f7420626520656d70747900000000000000600082015250565b60006200074060198362000685565b91506200074d8262000708565b602082019050919050565b60006020820190508181036000830152620007738162000731565b9050919050565b7f4d696e696d616c20616d6f756e742063616e277420626520677265617465722060008201527f7468616e206d6178696d616c0000000000000000000000000000000000000000602082015250565b6000620007d8602c8362000685565b9150620007e5826200077a565b604082019050919050565b600060208201905081810360008301526200080b81620007c9565b9050919050565b7f436170616369747920616d6f756e742073686f756c64206265206120706f736960008201527f74697665206e756d626572000000000000000000000000000000000000000000602082015250565b600062000870602b8362000685565b91506200087d8262000812565b604082019050919050565b60006020820190508181036000830152620008a38162000861565b9050919050565b7f4665652073686f756c64206265206c657373207468616e203130302500000000600082015250565b6000620008e2601c8362000685565b9150620008ef82620008aa565b602082019050919050565b600060208201905081810360008301526200091581620008d3565b9050919050565b7f5573657228726563656976657257616c6c65742920646f65736e27742065786960008201527f7374730000000000000000000000000000000000000000000000000000000000602082015250565b60006200097a60238362000685565b915062000987826200091c565b604082019050919050565b60006020820190508181036000830152620009ad816200096b565b9050919050565b7f5573657228666565576c6c65742920646f65736e277420657869737473000000600082015250565b6000620009ec601d8362000685565b9150620009f982620009b4565b602082019050919050565b6000602082019050818103600083015262000a1f81620009dd565b9050919050565b7f546f6b656e20646f65736e277420657869737473000000000000000000000000600082015250565b600062000a5e60148362000685565b915062000a6b8262000a26565b602082019050919050565b6000602082019050818103600083015262000a918162000a4f565b9050919050565b61239d8062000aa86000396000f3fe608060405234801561001057600080fd5b50600436106101375760003560e01c80636e553f65116100b857806390d49b9d1161007c57806390d49b9d146103085780639b2cb5d814610324578063ac30777314610342578063b214c3d91461034c578063ddca3f431461036a578063f25f4b561461038857610137565b80636e553f65146102625780636e88a7bd1461027e5780638740cd4e1461029c5780638cd221c9146102cc5780638da5cb5b146102ea57610137565b80634e71d92d116100ff5780634e71d92d146101cc5780635aa68ac0146101ea5780635cfc1a51146102085780635f48f39314610226578063677342ab1461024457610137565b806306fdde031461013c57806319ab453c1461015a578063211418ab146101765780632f7e02531461019257806345dc3dd8146101b0575b600080fd5b6101446103a6565b6040516101519190611836565b60405180910390f35b610174600480360381019061016f91906118b4565b6103ac565b005b610190600480360381019061018b9190611919565b6103f0565b005b61019a610539565b6040516101a79190611955565b60405180910390f35b6101ca60048036038101906101c591906119a6565b610563565b005b6101d461067a565b6040516101e191906119e2565b60405180910390f35b6101f261068d565b6040516101ff9190611af9565b60405180910390f35b610210610819565b60405161021d9190611b2a565b60405180910390f35b61022e61081f565b60405161023b9190611b2a565b60405180910390f35b61024c610825565b6040516102599190611955565b60405180910390f35b61027c60048036038101906102779190611b45565b61084b565b005b6102866111eb565b6040516102939190611b2a565b60405180910390f35b6102b660048036038101906102b191906118b4565b6111f1565b6040516102c39190611b2a565b60405180910390f35b6102d46112c6565b6040516102e19190611836565b60405180910390f35b6102f26112cc565b6040516102ff9190611955565b60405180910390f35b610322600480360381019061031d91906118b4565b6112f2565b005b61032c61148f565b6040516103399190611b2a565b60405180910390f35b61034a611495565b005b610354611710565b6040516103619190611b2a565b60405180910390f35b6103726117c1565b60405161037f9190611b2a565b60405180910390f35b6103906117c7565b60405161039d9190611955565b60405180910390f35b60005481565b80600960006101000a81548173ffffffffffffffffffffffffffffffffffffffff021916908373ffffffffffffffffffffffffffffffffffffffff16021790555050565b600a60009054906101000a900473ffffffffffffffffffffffffffffffffffffffff1673ffffffffffffffffffffffffffffffffffffffff163373ffffffffffffffffffffffffffffffffffffffff1614610480576040517f08c379a000000000000000000000000000000000000000000000000000000000815260040161047790611be2565b60405180910390fd5b801515600a60149054906101000a900460ff16151514156104d6576040517f08c379a00000000000000000000000000000000000000000000000000000000081526004016104cd90611c4e565b60405180910390fd5b80600a60146101000a81548160ff0219169083151502179055507f5607e5154f13d5b5d4ef51ff9cee6bde558cc1ebcf58fbbe5e4370a6506c5151600a60149054906101000a900460ff1660405161052e91906119e2565b60405180910390a150565b6000600960009054906101000a900473ffffffffffffffffffffffffffffffffffffffff16905090565b600a60009054906101000a900473ffffffffffffffffffffffffffffffffffffffff1673ffffffffffffffffffffffffffffffffffffffff163373ffffffffffffffffffffffffffffffffffffffff16146105f3576040517f08c379a00000000000000000000000000000000000000000000000000000000081526004016105ea90611be2565b60405180910390fd5b6003548110610637576040517f08c379a000000000000000000000000000000000000000000000000000000000815260040161062e90611ce0565b60405180910390fd5b806002819055507f42d696a8e8df539e3f49ffeae2814c9b04d479bf3117c88ba4c5ca0a8ba8dbe260025460405161066f9190611b2a565b60405180910390a150565b600a60149054906101000a900460ff1681565b60606000600d8054905067ffffffffffffffff8111156106b0576106af611d00565b5b6040519080825280602002602001820160405280156106e957816020015b6106d66117ed565b8152602001906001900390816106ce5790505b50905060005b600d80549050811015610811576040518060400160405280600d838154811061071b5761071a611d2f565b5b9060005260206000200160009054906101000a900473ffffffffffffffffffffffffffffffffffffffff1673ffffffffffffffffffffffffffffffffffffffff168152602001600b6000600d858154811061077957610778611d2f565b5b9060005260206000200160009054906101000a900473ffffffffffffffffffffffffffffffffffffffff1673ffffffffffffffffffffffffffffffffffffffff1673ffffffffffffffffffffffffffffffffffffffff168152602001908152602001600020548152508282815181106107f5576107f4611d2f565b5b60200260200101819052508061080a90611d8d565b90506106ef565b508091505090565b60045481565b60035481565b600760009054906101000a900473ffffffffffffffffffffffffffffffffffffffff1681565b6000600960009054906101000a900473ffffffffffffffffffffffffffffffffffffffff1673ffffffffffffffffffffffffffffffffffffffff166370a08231306040518263ffffffff1660e01b81526004016108a89190611955565b60206040518083038186803b1580156108c057600080fd5b505afa1580156108d4573d6000803e3d6000fd5b505050506040513d601f19601f820116820180604052508101906108f89190611deb565b905082600960009054906101000a900473ffffffffffffffffffffffffffffffffffffffff1673ffffffffffffffffffffffffffffffffffffffff166370a08231336040518263ffffffff1660e01b81526004016109569190611955565b60206040518083038186803b15801561096e57600080fd5b505afa158015610982573d6000803e3d6000fd5b505050506040513d601f19601f820116820180604052508101906109a69190611deb565b10156109e7576040517f08c379a00000000000000000000000000000000000000000000000000000000081526004016109de90611e64565b60405180910390fd5b82600960009054906101000a900473ffffffffffffffffffffffffffffffffffffffff1673ffffffffffffffffffffffffffffffffffffffff1663dd62ed3e33306040518363ffffffff1660e01b8152600401610a45929190611e84565b60206040518083038186803b158015610a5d57600080fd5b505afa158015610a71573d6000803e3d6000fd5b505050506040513d601f19601f82011682018060405250810190610a959190611deb565b1015610ad6576040517f08c379a0000000000000000000000000000000000000000000000000000000008152600401610acd90611ef9565b60405180910390fd5b6004548184610ae59190611f19565b1115610b26576040517f08c379a0000000000000000000000000000000000000000000000000000000008152600401610b1d90611fbb565b60405180910390fd5b6002548311610b6a576040517f08c379a0000000000000000000000000000000000000000000000000000000008152600401610b619061204d565b60405180910390fd5b6003548310610bae576040517f08c379a0000000000000000000000000000000000000000000000000000000008152600401610ba5906120df565b60405180910390fd5b600061271060055485610bc191906120ff565b610bcb9190612188565b9050600073ffffffffffffffffffffffffffffffffffffffff168373ffffffffffffffffffffffffffffffffffffffff1614610dbd57600061271060065483610c1491906120ff565b610c1e9190612188565b905060008183610c2e91906121b9565b9050600960009054906101000a900473ffffffffffffffffffffffffffffffffffffffff1673ffffffffffffffffffffffffffffffffffffffff166323b872dd33600860009054906101000a900473ffffffffffffffffffffffffffffffffffffffff16846040518463ffffffff1660e01b8152600401610cb1939291906121ed565b602060405180830381600087803b158015610ccb57600080fd5b505af1158015610cdf573d6000803e3d6000fd5b505050506040513d601f19601f82011682018060405250810190610d039190612239565b50600960009054906101000a900473ffffffffffffffffffffffffffffffffffffffff1673ffffffffffffffffffffffffffffffffffffffff166323b872dd3387856040518463ffffffff1660e01b8152600401610d63939291906121ed565b602060405180830381600087803b158015610d7d57600080fd5b505af1158015610d91573d6000803e3d6000fd5b505050506040513d601f19601f82011682018060405250810190610db59190612239565b505050610e92565b600960009054906101000a900473ffffffffffffffffffffffffffffffffffffffff1673ffffffffffffffffffffffffffffffffffffffff166323b872dd33600860009054906101000a900473ffffffffffffffffffffffffffffffffffffffff16846040518463ffffffff1660e01b8152600401610e3e939291906121ed565b602060405180830381600087803b158015610e5857600080fd5b505af1158015610e6c573d6000803e3d6000fd5b505050506040513d601f19601f82011682018060405250810190610e909190612239565b505b600a60149054906101000a900460ff1615610f8b57600960009054906101000a900473ffffffffffffffffffffffffffffffffffffffff1673ffffffffffffffffffffffffffffffffffffffff166323b872dd33600760009054906101000a900473ffffffffffffffffffffffffffffffffffffffff168488610f1591906121b9565b6040518463ffffffff1660e01b8152600401610f33939291906121ed565b602060405180830381600087803b158015610f4d57600080fd5b505af1158015610f61573d6000803e3d6000fd5b505050506040513d601f19601f82011682018060405250810190610f859190612239565b50611049565b600960009054906101000a900473ffffffffffffffffffffffffffffffffffffffff1673ffffffffffffffffffffffffffffffffffffffff166323b872dd33308488610fd791906121b9565b6040518463ffffffff1660e01b8152600401610ff5939291906121ed565b602060405180830381600087803b15801561100f57600080fd5b505af1158015611023573d6000803e3d6000fd5b505050506040513d601f19601f820116820180604052508101906110479190612239565b505b600c60003373ffffffffffffffffffffffffffffffffffffffff1673ffffffffffffffffffffffffffffffffffffffff16815260200190815260200160002060009054906101000a900460ff1661115657600d339080600181540180825580915050600190039060005260206000200160009091909190916101000a81548173ffffffffffffffffffffffffffffffffffffffff021916908373ffffffffffffffffffffffffffffffffffffffff1602179055506001600c60003373ffffffffffffffffffffffffffffffffffffffff1673ffffffffffffffffffffffffffffffffffffffff16815260200190815260200160002060006101000a81548160ff0219169083151502179055505b83600b60003373ffffffffffffffffffffffffffffffffffffffff1673ffffffffffffffffffffffffffffffffffffffff16815260200190815260200160002060008282546111a59190611f19565b925050819055507f7df06268a8c7d794d7bc9a4a7febe2e8225592f3cb0ed3b44295bcc0cea60a6233856040516111dd929190612266565b60405180910390a150505050565b60065481565b6000600c60008373ffffffffffffffffffffffffffffffffffffffff1673ffffffffffffffffffffffffffffffffffffffff16815260200190815260200160002060009054906101000a900460ff1661127f576040517f08c379a0000000000000000000000000000000000000000000000000000000008152600401611276906122db565b60405180910390fd5b600b60008373ffffffffffffffffffffffffffffffffffffffff1673ffffffffffffffffffffffffffffffffffffffff168152602001908152602001600020549050919050565b60015481565b600a60009054906101000a900473ffffffffffffffffffffffffffffffffffffffff1681565b600a60009054906101000a900473ffffffffffffffffffffffffffffffffffffffff1673ffffffffffffffffffffffffffffffffffffffff163373ffffffffffffffffffffffffffffffffffffffff1614611382576040517f08c379a000000000000000000000000000000000000000000000000000000000815260040161137990611be2565b60405180910390fd5b600073ffffffffffffffffffffffffffffffffffffffff168173ffffffffffffffffffffffffffffffffffffffff1614156113f2576040517f08c379a00000000000000000000000000000000000000000000000000000000081526004016113e990612347565b60405180910390fd5b80600860006101000a81548173ffffffffffffffffffffffffffffffffffffffff021916908373ffffffffffffffffffffffffffffffffffffffff1602179055507f18e4c8a156904451283849b755d8d9b1fb3c3fa27398c041dc16ef6e816c27c4600860009054906101000a900473ffffffffffffffffffffffffffffffffffffffff166040516114849190611955565b60405180910390a150565b60025481565b600a60009054906101000a900473ffffffffffffffffffffffffffffffffffffffff1673ffffffffffffffffffffffffffffffffffffffff163373ffffffffffffffffffffffffffffffffffffffff1614611525576040517f08c379a000000000000000000000000000000000000000000000000000000000815260040161151c90611be2565b60405180910390fd5b6000600960009054906101000a900473ffffffffffffffffffffffffffffffffffffffff1673ffffffffffffffffffffffffffffffffffffffff166370a08231306040518263ffffffff1660e01b81526004016115829190611955565b60206040518083038186803b15801561159a57600080fd5b505afa1580156115ae573d6000803e3d6000fd5b505050506040513d601f19601f820116820180604052508101906115d29190611deb565b9050600960009054906101000a900473ffffffffffffffffffffffffffffffffffffffff1673ffffffffffffffffffffffffffffffffffffffff1663a9059cbb600760009054906101000a900473ffffffffffffffffffffffffffffffffffffffff1660018461164291906121b9565b6040518363ffffffff1660e01b815260040161165f929190612266565b602060405180830381600087803b15801561167957600080fd5b505af115801561168d573d6000803e3d6000fd5b505050506040513d601f19601f820116820180604052508101906116b19190612239565b507f85bec4d111510249183caaf227fdb7018fc704124f8dd4cc1f998a975e09b0b7600760009054906101000a900473ffffffffffffffffffffffffffffffffffffffff1682604051611705929190612266565b60405180910390a150565b6000805b600d805490508110156117bd57600b6000600d838154811061173957611738611d2f565b5b9060005260206000200160009054906101000a900473ffffffffffffffffffffffffffffffffffffffff1673ffffffffffffffffffffffffffffffffffffffff1673ffffffffffffffffffffffffffffffffffffffff16815260200190815260200160002054826117aa9190611f19565b9150806117b690611d8d565b9050611714565b5090565b60055481565b600860009054906101000a900473ffffffffffffffffffffffffffffffffffffffff1681565b6040518060400160405280600073ffffffffffffffffffffffffffffffffffffffff168152602001600081525090565b6000819050919050565b6118308161181d565b82525050565b600060208201905061184b6000830184611827565b92915050565b600080fd5b600073ffffffffffffffffffffffffffffffffffffffff82169050919050565b600061188182611856565b9050919050565b61189181611876565b811461189c57600080fd5b50565b6000813590506118ae81611888565b92915050565b6000602082840312156118ca576118c9611851565b5b60006118d88482850161189f565b91505092915050565b60008115159050919050565b6118f6816118e1565b811461190157600080fd5b50565b600081359050611913816118ed565b92915050565b60006020828403121561192f5761192e611851565b5b600061193d84828501611904565b91505092915050565b61194f81611876565b82525050565b600060208201905061196a6000830184611946565b92915050565b6000819050919050565b61198381611970565b811461198e57600080fd5b50565b6000813590506119a08161197a565b92915050565b6000602082840312156119bc576119bb611851565b5b60006119ca84828501611991565b91505092915050565b6119dc816118e1565b82525050565b60006020820190506119f760008301846119d3565b92915050565b600081519050919050565b600082825260208201905092915050565b6000819050602082019050919050565b611a3281611876565b82525050565b611a4181611970565b82525050565b604082016000820151611a5d6000850182611a29565b506020820151611a706020850182611a38565b50505050565b6000611a828383611a47565b60408301905092915050565b6000602082019050919050565b6000611aa6826119fd565b611ab08185611a08565b9350611abb83611a19565b8060005b83811015611aec578151611ad38882611a76565b9750611ade83611a8e565b925050600181019050611abf565b5085935050505092915050565b60006020820190508181036000830152611b138184611a9b565b905092915050565b611b2481611970565b82525050565b6000602082019050611b3f6000830184611b1b565b92915050565b60008060408385031215611b5c57611b5b611851565b5b6000611b6a85828601611991565b9250506020611b7b8582860161189f565b9150509250929050565b600082825260208201905092915050565b7f596f7520617265206e6f7420746865206f776e65720000000000000000000000600082015250565b6000611bcc601583611b85565b9150611bd782611b96565b602082019050919050565b60006020820190508181036000830152611bfb81611bbf565b9050919050565b7f436c61696d20697320616c726561647920696e20746861742073746174650000600082015250565b6000611c38601e83611b85565b9150611c4382611c02565b602082019050919050565b60006020820190508181036000830152611c6781611c2b565b9050919050565b7f4d696e696d616c20616d6f756e742063616e277420626520677265617465722060008201527f7468616e206d6178696d616c20616d6f756e7400000000000000000000000000602082015250565b6000611cca603383611b85565b9150611cd582611c6e565b604082019050919050565b60006020820190508181036000830152611cf981611cbd565b9050919050565b7f4e487b7100000000000000000000000000000000000000000000000000000000600052604160045260246000fd5b7f4e487b7100000000000000000000000000000000000000000000000000000000600052603260045260246000fd5b7f4e487b7100000000000000000000000000000000000000000000000000000000600052601160045260246000fd5b6000611d9882611970565b91507fffffffffffffffffffffffffffffffffffffffffffffffffffffffffffffffff821415611dcb57611dca611d5e565b5b600182019050919050565b600081519050611de58161197a565b92915050565b600060208284031215611e0157611e00611851565b5b6000611e0f84828501611dd6565b91505092915050565b7f496e73756666696369656e742062616c616e6365000000000000000000000000600082015250565b6000611e4e601483611b85565b9150611e5982611e18565b602082019050919050565b60006020820190508181036000830152611e7d81611e41565b9050919050565b6000604082019050611e996000830185611946565b611ea66020830184611946565b9392505050565b7f496e73756666696369656e7420616c6c6f77616e636500000000000000000000600082015250565b6000611ee3601683611b85565b9150611eee82611ead565b602082019050919050565b60006020820190508181036000830152611f1281611ed6565b9050919050565b6000611f2482611970565b9150611f2f83611970565b9250827fffffffffffffffffffffffffffffffffffffffffffffffffffffffffffffffff03821115611f6457611f63611d5e565b5b828201905092915050565b7f5468652063617061636974792069732066756c6c000000000000000000000000600082015250565b6000611fa5601483611b85565b9150611fb082611f6f565b602082019050919050565b60006020820190508181036000830152611fd481611f98565b9050919050565b7f416d6f756e742053686f756c642062652067726561746572207468616e206d6960008201527f6e206465706f73697420616d6f756e7400000000000000000000000000000000602082015250565b6000612037603083611b85565b915061204282611fdb565b604082019050919050565b600060208201905081810360008301526120668161202a565b9050919050565b7f416d6f756e742053686f756c64206265206c657373207468616e206d6178206460008201527f65706f73697420616d6f756e7400000000000000000000000000000000000000602082015250565b60006120c9602d83611b85565b91506120d48261206d565b604082019050919050565b600060208201905081810360008301526120f8816120bc565b9050919050565b600061210a82611970565b915061211583611970565b9250817fffffffffffffffffffffffffffffffffffffffffffffffffffffffffffffffff048311821515161561214e5761214d611d5e565b5b828202905092915050565b7f4e487b7100000000000000000000000000000000000000000000000000000000600052601260045260246000fd5b600061219382611970565b915061219e83611970565b9250826121ae576121ad612159565b5b828204905092915050565b60006121c482611970565b91506121cf83611970565b9250828210156121e2576121e1611d5e565b5b828203905092915050565b60006060820190506122026000830186611946565b61220f6020830185611946565b61221c6040830184611b1b565b949350505050565b600081519050612233816118ed565b92915050565b60006020828403121561224f5761224e611851565b5b600061225d84828501612224565b91505092915050565b600060408201905061227b6000830185611946565b6122886020830184611b1b565b9392505050565b7f55736572206973206e6f7420612066756e646572000000000000000000000000600082015250565b60006122c5601483611b85565b91506122d08261228f565b602082019050919050565b600060208201905081810360008301526122f4816122b8565b9050919050565b7f5573657220646f65736e27742065786973747300000000000000000000000000600082015250565b6000612331601383611b85565b915061233c826122fb565b602082019050919050565b6000602082019050818103600083015261236081612324565b905091905056fea2646970667358221220ce2b912df0917e047b9dd56c3fd635b402b9b2b08ac6c85b827f89d08840a22664736f6c63430008090033a264697066735822122003a518f7da73bc41fc3231efd0aedad0fbcde6b2132bbb4e965ee8bcbd1baa9c64736f6c63430008090033",
  "linkReferences": {},
  "deployedLinkReferences": {}
}